:1000000003308A00D72B00000C1A2039E135E13685
:10001000EC348A296933F232A037EC3A733A7539F5
:100020000000CC3A74336537A0396933F2328A3331
:100030006939E9396910F930F0346E1700010C2480
:10004000EF39E7326C326937693D2E000C24EF3905
:10005000E7326C326937693D2E008C256136613795
:100060002034E135BD12640500008C336939E9396B
:100070002031E1396139E939693D8A2C65376910E8
:100080007333F232203BE135F43400018C32F33526
:100090006910F3346639E51E00013B308400831398
:1000A0000008031961280130F800F701F70B562802
:1000B000F80B55284A30F700F70B5C285F28800BB7
:1000C0005328080042186628081267280816831665
:1000D00008128312C2186E2888126F288816831699
:1000E0008812831242197628081377280817831676
:1000F00008138312C2197E2888137F288817831655
:1001000088130000831209148316091087288312AC
:1001100009108316091083120800C30183160816FC
:1001200000308312081A0130C30483168816003089
:100130008312881A0130F7000310F70D7708C30403
:100140008316081700308312081B0130F700F70DE3
:10015000F70DFC30F7057708C304831688170030C5
:100160008312881B0130F700F70DF70DF70DF830FB
:10017000F7057708C3044308F80008008316091040
:10018000091189108312091183160911081688169E
:1001900008178817831289148316891000008312A8
:1001A000091483160910000083128D207808C200FC
:1001B0000910831609100000831209148316091010
:1001C000000083128D207808C100091083160910E1
:1001D00008128812081388138312420EF700F030B9
:1001E000F70577084104F8007808C100C11FFA2814
:1001F0008316C628BF08031DFF2809110029091509
:1002000083160911000083128910831689100000DB
:1002100083120910831609108312400EC1000F309B
:10022000C1054108C200622040080F39C100C20068
:10023000622008002830B4000C30B5000130B60050
:100240000630B700091083160910831209118316AE
:100250000911831289108316891008128812081355
:1002600088130910091189100F308312BB004D202B
:100270000130B3003308033C031C46290330C2009D
:1002800062200530BB004D20B30A3A290230C2007B
:1002900062200530BB004D20B3013308033C031C32
:1002A0005D2934303307840083130008B800BF0190
:1002B0003808C000BE20B30A4D298A110A12E62B65
:1002C0003C0B632966294030BD006729BD01013020
:1002D0003B02BD073D088038BE00BF013E08C0009C
:1002E000BE2008003A08073A031980290B3A03197F
:1002F0008529063A03198D29023A03199329982969
:100300000130BB00BC0060219D29BF010130C0004D
:10031000BE200230BB004D209D290130BB000230C1
:10032000BC0060219D29BF011030C000BE209D2966
:100330000130BF003A08C000BE2008000B08B3001F
:100340008B13831603178C170C1400000000831204
:100350000313B31B8B1703170C087F390319F229FA
:100360000313B30003170D080313B40003170F089A
:100370000313B5003308BA007221340803178D0047
:100380000313350803178F0003130B08B6008B13F4
:10039000831603178C170C1400000000831203133C
:1003A000B61B8B1703170C0D0E0D7F390319F2299D
:1003B0000313B30003170D080313B40003170F084A
:1003C0000313B5003308BA007221340803178D00F7
:1003D0000313350803178F008D0A03198F0A0313BF
:1003E0009E290317031308006830B600B5013508CD
:1003F000013C031CFE2A8316061083120614831682
:1004000006168312061E132A831606108312061080
:1004100083160612831206123130BA00722101309F
:10042000F800002B3A2A831686168312861E272A86
:100430008316061083120610831686128312861204
:100440003230BA0072210230F800002B3A2A8316AB
:1004500006178312061F3A2A831606108312061007
:1004600083160613831206133330BA007221033049
:10047000F800002B831606108312061083168610D0
:1004800083128614831606168312061E562A8316B6
:1004900086108312861083160612831206123430D9
:1004A000BA0072210430F800002B7D2A83168616CC
:1004B0008312861E6A2A831686108312861083167C
:1004C0008612831286123530BA0072210530F80088
:1004D000002B7D2A831606178312061F7D2A83169A
:1004E0008610831286108316061383120613363085
:1004F000BA0072210630F800002B83168610831292
:1005000086108316061183120615831606168312AB
:10051000061E992A831606118312061183160612E7
:10052000831206123730BA0072210730F800002B10
:10053000C02A831686168312861EAD2A83160611DC
:100540008312061183168612831286123830BA007F
:1005500072210830F800002BC02A83160617831278
:10056000061FC02A8316061183120611831606136E
:10057000831206133930BA0072210930F800002BBB
:1005800083160611831206118316861183128615AF
:10059000831606168312061AE62A83168616831217
:1005A000861EE12A8316861183128611831686120F
:1005B000831286123030BA0072210030F800002B0E
:1005C000E62A831606178312061FE62A83160610EC
:1005D0008312061083168610831286108316061166
:1005E0008312061183168611831286113608683C21
:1005F000031DFC2AFF30B500B50AF729FF30F800CB
:1006000008008316081083120814C830BB004D2060
:100610008316081083120810C830BB004D208A11C1
:100620000A12992C0B08B5008B13831603178C172D
:100630000C140000000083120313B51B8B17031862
:10064000492B03170C087F390313B50003170D0856
:100650000313B60003170F080313B7003508BA00D9
:100660007221360803178D000313370803178F0014
:1006700003130B08B8008B13831603178C170C1485
:100680000000000083120313B81B8B17B40B492B17
:10069000682B03170C0D0E0D7F390313B5000317DC
:1006A0000D080313B60003170F080313B70035082E
:1006B000BA007221360803178D0003133708031799
:1006C0008F008D0A03198F0A03100313B40B122B2A
:1006D0008A110A12DC2C3B08F8013A020318732B2A
:1006E0003A08F7007F2BF7010830BC00BA0DF70D70
:1006F0003B0877020318F700F80DBC0B762B0800B7
:100700002030351E3030B6003408F700B41F902B6F
:10071000F709F70A7708B4002D30B600B51735147D
:100720003408BA006430BB006B237708B400303063
:100730007807B7003408BA000A30BB006B233030AA
:100740007707B90030307807B8003608F700303046
:1007500037020319AF2BB514B51B3515C32B36085B
:10076000B7002030B600303038020319BB2B3514E7
:10077000B51BB514C32B031D3514031DC32B37083C
:10078000B8002030B7003519CA2BB518CD2B351855
:10079000D02BD32B3608BA0072213708BA00722149
:1007A0003808BA0072213908BA007221080003081B
:1007B0001F398300FF30A00083161F149F141F15DC
:1007C0009F1107309C00831383121A290130AB005C
:1007D0000230AC000330AD00AE00AF01B0010F300D
:1007E000831686000030880087008312A000A000D6
:1007F0008316870183128701A5012508033C031C8A
:10080000082C21302507840083138001A50AFD2BC5
:10081000B008031D432C043003178D0000308F00F7
:1008200003139E21A5012508033C031C2B2C21301A
:100830002507F800FA010318FA0A7808B3007A08C5
:10084000B400F42133088400831334188317780824
:100850008000A50A132CA5012508033C031C422C8B
:1008600021302507840083130008B3002B302507AF
:1008700084008313000833020319402C0130B000B8
:10088000A50A2C2C082C0C30BA0072211130031749
:100890008D0000308F0003139E210330B100B1089A
:1008A0000319E62CB201AF01A6012608033C031C84
:1008B0006D2C27302607F800FA010318FA0A780889
:1008C000B3007A08B400F421330884008313341889
:1008D000831778088000A60A552CA6012608033C39
:1008E000031C872C27302607840083130008B300DD
:1008F0002B30260784008313000833020319852C4C
:10090000AF08031D852C0130AF00A60A6E2CAF087E
:10091000031D9C2C1F3003178D0000308F00031324
:100920009E21B10AB001A6012608093C031C9B2C9C
:10093000012BA60A942CE62CA6012608033C031CD6
:10094000B32C27302607840083130008B30021301E
:10095000260784008313000833020319B12C0130E9
:10096000B200A60A9D2CB208031DCF2C83160811D5
:1009700083120815263003178D0000308F000313F3
:100980009E210830B300FA30BB004D20B30BC32CBE
:100990008316081183120811B10AB001E62C013048
:1009A0003102B3002D3003178D0000308F0003108B
:1009B0000B300313B400122B3308B4001830B50009
:1009C00080230A30BA007221B1034F2CB108031DF5
:1009D0001F2D8316881083128814353003178D005D
:1009E00000308F0003139E21B0010830B300FA30AD
:1009F000BB004D20B30BF72C831688108312881090
:100A0000463003178D0000308F0003139E21A6018E
:100A10002608033C031C182D21302607840083136D
:100A20000008B300B4001830B5008023A60A082DD2
:100A30000430B300FA30BB004D20B30B1A2DFC2B51
:020A4000630051
:02400E00313F40
:00000001FF
;PIC16F877A
;CRC=0C7B  CREATED="21-Oca-22 01:33"
